{
    "contractName": "RIFCounter",
    "abi": [
        {
            "anonymous": false,
            "inputs": [
                {
                    "indexed": false,
                    "internalType": "uint256",
                    "name": "count",
                    "type": "uint256"
                }
            ],
            "name": "Counted",
            "type": "event"
        },
        {
            "inputs": [],
            "name": "count",
            "outputs": [
                {
                    "internalType": "uint256",
                    "name": "",
                    "type": "uint256"
                }
            ],
            "stateMutability": "view",
            "type": "function"
        },
        {
            "inputs": [],
            "name": "inc",
            "outputs": [],
            "stateMutability": "payable",
            "type": "function"
        },
        {
            "inputs": [],
            "name": "fail",
            "outputs": [],
            "stateMutability": "pure",
            "type": "function"
        }
    ],
    "bytecode": "0x60806040526000805534801561001457600080fd5b506101f1806100246000396000f3fe608060405260043610610050577c0100000000000000000000000000000000000000000000000000000000600035046306661abd8114610055578063371303c014610080578063a9cc47181461008a575b600080fd5b34801561006157600080fd5b5061006a61009f565b6040516100779190610175565b60405180910390f35b6100886100a5565b005b34801561009657600080fd5b50610088610103565b60005481565b6000546100b390600161017e565b6000808282546100c3919061017e565b90915550506000546040517f15df0a6785153dfd625c8af51397704c7ddaff0690e5076243b5e52f4a0d5409916100f991610175565b60405180910390a1565b6040517f08c379a00000000000000000000000000000000000000000000000000000000081526004016101359061013e565b60405180910390fd5b60208082526004908201527f426f6f6d00000000000000000000000000000000000000000000000000000000604082015260600190565b90815260200190565b600082198211156101b6577f4e487b710000000000000000000000000000000000000000000000000000000081526011600452602481fd5b50019056fea2646970667358221220735072fe265c8d4efad48fd2f793b131de004653ba9ea6e51f7f000d64aa724264736f6c63430008000033",
    "immutableReferences": {},
    "source": "// SPDX-License-Identifier: MIT\npragma solidity ^0.8.0;\n\ncontract RIFCounter {\n  uint256 public count = 0;\n\n  event Counted(uint256 count);\n  // slither-disable-next-line locked-ether\n  \n  function inc() external payable {\n    count += count + 1;\n    emit Counted(count);\n  }\n\n  function fail() external pure {\n    revert('Boom');\n  }\n}\n",
    "sourcePath": "/Users/diegograsso/dev/rif-scheduler-contracts-poc/contracts/test/RIFCounter.sol",
    "compiler": {
        "name": "solc",
        "version": "0.8.0+commit.c7dfd78e.Emscripten.clang"
    },
    "schemaVersion": "3.4.1",
    "updatedAt": "2021-06-15T18:38:17.772Z",
    "devdoc": {
        "kind": "dev",
        "methods": {},
        "version": 1
    },
    "userdoc": {
        "kind": "user",
        "methods": {},
        "version": 1
    }
}